:100000000C942A000C94C7020C9447000C944700EF
:100010000C9447000C9447000C9455030C94CA06AA
:100020000C9447000C9426030C9447000C944B034B
:100030000C9447000C94EF030C9447000C941804A4
:100040000C94F0020C9447000C9447000C94470069
:100050000C94470011241FBECFE5D8E0DEBFCDBF12
:1000600010E0A0E6B0E0E8E5FCE102C005900D92EA
:10007000A23AB107D9F727E0A2EAB0E001C01D9289
:10008000A233B207E1F70E9497000C942A0E0C9459
:1000900000000E942C040E94CD000E948B0140E0D1
:1000A00064E08AE00E94D8079093A9008093A8009A
:1000B0008091A6009091A7000E94EE0CEACFCF930A
:1000C000DF931F92CDB7DEB719820E94DE008983CD
:1000D000882361F020E04AE050E0BE016F5F7F4F6F
:1000E0008091A8009091A9000E94020884E690E007
:1000F0000E94840CEACFCF93DF931F92CDB7DEB777
:1001000019824AE050E0BE016F5F7F4F8091A800E6
:100110009091A9000E9494088981882319F00E9477
:10012000A101198282E390E00E94840CEACF0F2E95
:10013000F6EAEF2EF0E0FF2EF02D03E020E030E0B5
:1001400044E650E068E870E089E490E00E94D40A58
:100150000F2EF4EAEF2EF0E0FF2EF02D02E020E06B
:1001600030E044E650E062E970E08FE590E00E9404
:10017000D40A0F2EF2EAEF2EF0E0FF2EF02D01E070
:1001800020E030E044E650E069E970E08BE790E081
:100190000E94D40A0E94280BFFCF61E08CE00E94ED
:1001A000FF0161E08DE00E94FF0161E08EE00E94AE
:1001B000FF0161E08FE00E94FF010895FF920F931D
:1001C0001F93CF93DF931F92CDB7DEB71982F12C27
:1001D0000CE039C060E0802F0E94FF011AE12CC0C2
:1001E000BE016F5F7F4F812F0E948602898181113E
:1001F00022C0802F90E00C97212F30E02A51310946
:10020000AC01440F551F840F951F805A9F4FFC016E
:10021000E20FF31FF08006C0BE016F5F7F4F812F9A
:100220000E94860289818823B9F38FE39CE90197B4
:10023000F1F700C000001F5F1D3190F261E0802FD8
:100240000E94FF010F5F003128F28F2D0F90DF9188
:10025000CF911F910F91FF900895CF93C82F60E029
:1002600081E00E94FF0160E082E00E94FF01C4FB88
:10027000662760F983E00E94FF01C5FB662760F9ED
:1002800084E00E94FF01C6FB662760F985E00E94BA
:10029000FF016C2F661F6627661F86E00E94FF0124
:1002A00061E082E00E94FF018FE99FE00197F1F792
:1002B00000C0000060E082E00E94FF016C2F6170CE
:1002C00083E00E94FF01C1FB662760F984E00E9481
:1002D000FF01C2FB662760F985E00E94FF01C3FBB6
:1002E000662760F986E00E94FF0161E082E00E94DB
:1002F000FF018FE99FE00197F1F700C0000060E087
:1003000082E00E94FF018FE19EE40197F1F700C0B7
:100310000000CF91089583E30E942D0182E30E94A3
:100320002D0188E20E942D018CE00E942D0181E0C8
:100330000E942D0186E00E942D0182E00E942D0185
:100340000895CF93C82F61E081E00E94FF0160E033
:1003500082E00E94FF01C4FB662760F983E00E94EF
:10036000FF01C5FB662760F984E00E94FF01C6FB20
:10037000662760F985E00E94FF016C2F661F6627E3
:10038000661F86E00E94FF0161E082E00E94FF019B
:100390008FE99FE00197F1F700C0000060E082E084
:1003A0000E94FF016C2F617083E00E94FF01C1FB7E
:1003B000662760F984E00E94FF01C2FB662760F9AE
:1003C00085E00E94FF01C3FB662760F986E00E947A
:1003D000FF0161E082E00E94FF018FE99FE0019749
:1003E000F1F700C0000060E082E00E94FF018FE1B1
:1003F0009EE40197F1F700C00000CF910895982F77
:100400009695969596958770662309F43FC061305E
:1004100009F07BC0913099F028F09230E9F09330E8
:1004200041F108954BB321E030E0B90102C0660FFD
:10043000771F8A95E2F7CB01842B8BBB089548B3D5
:1004400021E030E0B90102C0660F771F8A95E2F71C
:10045000CB01842B88BB089545B321E030E0B9017E
:1004600002C0660F771F8A95E2F7CB01842B85BB0C
:10047000089542B321E030E0B90102C0660F771F52
:100480008A95E2F7CB01842B82BB08959130A1F0CD
:1004900028F09230F9F0933059F108954BB321E0F0
:1004A00030E0B90102C0660F771F8A95E2F7CB01F1
:1004B000809584238BBB089548B321E030E0B901D7
:1004C00002C0660F771F8A95E2F7CB0180958423DF
:1004D00088BB089545B321E030E0B90102C0660F42
:1004E000771F8A95E2F7CB018095842385BB089519
:1004F00042B321E030E0B90102C0660F771F8A9550
:10050000E2F7CB018095842382BB0895982F9695BE
:10051000969596958770913099F028F09230E9F091
:10052000933041F1089529B330E0A90102C05595F7
:1005300047958A95E2F7CA018170FB01808308958F
:1005400026B330E0A90102C0559547958A95E2F798
:10055000CA018170FB018083089523B330E0A901B3
:1005600002C0559547958A95E2F7CA018170FB0153
:100570008083089520B330E0A90102C055954795C6
:100580008A95E2F7CA018170FB01808308951F926A
:100590000F920FB60F9211242F933F934F935F93B7
:1005A0006F937F938F939F93AF93BF93EF93FF933B
:1005B000E091BE00F091BF00309709F00995FF91DE
:1005C000EF91BF91AF919F918F917F916F915F91CB
:1005D0004F913F912F910F900FBE0F901F90189544
:1005E0001F920F920FB60F9211242F933F934F93A8
:1005F0005F936F937F938F939F93AF93BF93EF938B
:10060000FF9324B135B1A8E8B3E10E94070E2FEFA4
:1006100033E040E050E00E94E50D2093AA003093C3
:10062000AB004093AC005093AD00FF91EF91BF91B0
:10063000AF919F918F917F916F915F914F913F917A
:100640002F910F900FBE0F901F9018951F920F9231
:100650000FB60F9211248F939F93AF93BF93809106
:10066000E6009091E700A091E800B091E9000196C2
:10067000A11DB11D8093E6009093E700A093E800D0
:10068000B093E900BF91AF919F918F910F900FBEF2
:100690000F901F9018951F920F920FB60F92112472
:1006A0000F900FBE0F901F9018951F920F920FB6CC
:1006B0000F9211242F933F934F935F936F937F93E8
:1006C0008F939F93AF93BF93EF93FF938091B2006B
:1006D0009091B300A091B400B091B5000196A11D16
:1006E000B11D8093B2009093B300A093B400B09377
:1006F000B50081309105A105B105C1F486B597B566
:10070000A0E0B0E08093BA009093BB00A093BC003F
:10071000B093BD001092E6001092E7001092E8003E
:100720001092E9008EB58F7B8EBD48C08230910556
:10073000A105B10501F5E6B5F7B52091E6003091C8
:10074000E7004091E8005091E900AFEFBFEF0E9451
:10075000160EDC01CB018E0F9F1FA11DB11D8093D2
:10076000B6009093B700A093B800B093B9008EB5CF
:1007700080648EBD23C00397A105B105F9F4E6B5E9
:10078000F7B52091E6003091E7004091E8005091E4
:10079000E900AFEFBFEF0E94160EDC01CB018E0F18
:1007A0009F1FA11DB11D8093AE009093AF00A09339
:1007B000B000B093B10089B78F7D89BFFF91EF91F1
:1007C000BF91AF919F918F917F916F915F914F9169
:1007D0003F912F910F900FBE0F901F9018951F9271
:1007E0000F920FB60F9211242F933F934F935F9365
:1007F0006F937F938F939F93AF93BF93EF93FF93E9
:10080000E091D600F091D700309709F00995FF915B
:10081000EF91BF91AF919F918F917F916F915F9178
:100820004F913F912F910F900FBE0F901F901895F1
:100830001F920F920FB60F9211248F9381E0809335
:10084000EB008091EA008F5F8093EA008F910F9018
:100850000FBE0F901F90189590E07EC0E92FF0E03A
:10086000EE0FFF1FE459FF4F8081282F2695269514
:100870002695877031813323B9F1313009F06BC08F
:10088000213089F028F02230C9F0233011F163C003
:100890004AB321E030E002C0220F331F8A95E2F70D
:1008A000242B2ABB58C047B321E030E002C0220FFE
:1008B000331F8A95E2F7242B27BB4DC044B321E0B8
:1008C00030E002C0220F331F8A95E2F7242B24BBAD
:1008D00042C041B321E030E002C0220F331F8A95AD
:1008E000E2F7242B21BB37C0213091F028F02230D1
:1008F000D9F0233029F12FC04AB321E030E002C003
:10090000220F331F8A95E2F7209524232ABB23C0A8
:1009100047B321E030E002C0220F331F8A95E2F78F
:100920002095242327BB17C044B321E030E002C048
:10093000220F331F8A95E2F72095242324BB0BC096
:1009400041B321E030E002C0220F331F8A95E2F765
:100950002095242321BB9F5F9E3008F47FCF08950C
:10096000CF93DF93EC010E94520B8091EC009091A9
:10097000ED00892B31F481EF90E09093ED008093AE
:10098000EC002091EE003091EF00C9018C0F9D1F0B
:100990008B3D45E0940770F42817390770F4C09137
:1009A000EC00D091ED00C20FD31F9093EF00809325
:1009B000EE0005C0C0E0D0E002C0C0E0D0E00E9480
:1009C000120CCE01DF91CF9108950895FC0103969A
:1009D000928381832FEF3FEF348323839683858334
:1009E0009087878310820895FC01118610860895F0
:1009F000CF93DF939C01FB01DC011196CD91DC913B
:100A00001297D383C2838C819D81958384838C814B
:100A10009D81DC0113967C936E9312977D836C838A
:100A200031872087F90180818F5F8083DF91CF91AB
:100A30000895CF93DF93EB01488159814F3F2FEF0A
:100A4000520721F4FC01A781B0850DC0DC0113968B
:100A500001C0DF011296ED91FC9113972081318145
:100A600042175307B0F71296ED91FC911397FB8351
:100A7000EA83D583C483BD83AC831396DC93CE9382
:100A8000129799878887FC0120812F5F2083DF914F
:100A9000CF910895CF93DF93FC01A085B185C281EA
:100AA000D381848195819D838C83C481D58182810A
:100AB00093819B838A8311968D919C911297E8175D
:100AC000F90731F48481958112969C938E93119746
:100AD000118610868C9181508C938C91DF91CF91EF
:100AE00008951BBC8CE78ABD8BE08EBD89B7806101
:100AF00089BF089531E1FC013083319722E22083E0
:100B00003197A3E3A0833197608331977083319746
:100B10001082319760E8608331971082319762E0EC
:100B20006083319763E06083319764E0608331973D
:100B300065E06083319766E06083319767E06083AA
:100B4000319768E06083319769E06083319760E1B5
:100B5000608331973083319732E13083319733E1CD
:100B60003083319734E13083319735E130833197E9
:100B700036E13083319737E13083319738E1308384
:100B8000319739E13083319730E23083319731E268
:100B9000308331972083319723E22083319740833C
:100BA00031975083319726E22083319727E22083C3
:100BB000319728E22083319729E22083319720E37F
:100BC0002083319721E32083869708950E94710541
:100BD000A0913007B0913107CD91CDBFDD91DEBF3F
:100BE000FF91EF91DF91CF91BF91AF919F918F9145
:100BF0007F916F915F914F913F912F911F910F9135
:100C0000FF90EF90DF90CF90BF90AF909F908F902C
:100C10007F906F905F904F903F902F901F900F901C
:100C20000FBE0F90089581E008950F920FB6F894CB
:100C30000F921F9211242F923F924F925F926F92C8
:100C40007F928F929F92AF92BF92CF92DF92EF925C
:100C5000FF920F931F932F933F934F935F936F9345
:100C60007F938F939F93AF93BF93CF93DF93EF9334
:100C7000FF93A0913007B09131070DB60D920EB6DB
:100C80000D920E949A0CA0913007B0913107CD913E
:100C9000CDBFDD91DEBFFF91EF91DF91CF91BF918D
:100CA000AF919F918F917F916F915F914F913F9104
:100CB0002F911F910F91FF90EF90DF90CF90BF90F9
:100CC000AF909F908F907F906F905F904F903F90EC
:100CD0002F901F900F900FBE0F9008950F920FB698
:100CE000F8940F921F9211242F923F924F925F928D
:100CF0006F927F928F929F92AF92BF92CF92DF922C
:100D0000EF92FF920F931F932F933F934F935F9315
:100D10006F937F938F939F93AF93BF93CF93DF9303
:100D2000EF93FF93A0913007B09131070DB60D926C
:100D30000EB60D920E94580B81110E949A0CA09140
:100D40003007B0913107CD91CDBFDD91DEBFFF916E
:100D5000EF91DF91CF91BF91AF919F918F917F9153
:100D60006F915F914F913F912F911F910F91FF9044
:100D7000EF90DF90CF90BF90AF909F908F907F903B
:100D80006F905F904F903F902F901F900F900FBEED
:100D90000F9008950E946E0618950FB6F8940F9262
:100DA000FC01828D811102C081E001C080E00F90C2
:100DB0000FBE08950FB6F8940F92FC01228D838D1B
:100DC000281302C081E001C080E00F900FBE08959B
:100DD0000F931F93CF93DF93EC01042F1A8D4C8D4B
:100DE0004423B9F1011116C050E08A819B810E9411
:100DF000210E2C8D8A819B81820F911D9B838A837A
:100E00002C813D818217930720F1888199819B83F2
:100E10008A831FC050E08E819F810E94210E8C8D9D
:100E200090E09195819591092E813F81280F391F7E
:100E30003F832E83488159812417350730F42C8154
:100E40003D81820F931F9F838E83023011F4111115
:100E500011501F5F1A8F80E0DF91CF911F910F918A
:100E60000895FC01448D4423A9F050E02681378188
:100E7000240F351F378326838481958128173907EE
:100E800020F08081918197838683CB016681778171
:100E90000E94210E08951F93CF93DF93EC010FB6AC
:100EA000F8940F921E8D0BC08989882351F0CE01D2
:100EB00041960E94520D81110E94E10D11501116B0
:100EC0009CF38FEF8E8F0F900FBE0FB6F8940F929A
:100ED0001D8D0BC08885882351F0CE0108960E9495
:100EE000520D81110E94E10D115011169CF38FEFEC
:100EF0008D8F0F900FBEDF91CF911F910895CF93EB
:100F0000DF93EC010FB6F8940F92E881F9818B8D95
:100F10002C8D90E030E0829FA001839F500D929F26
:100F2000500D11244E0F5F1F5D834C831A8EFB837F
:100F3000EA830197289FA001299F500D389F500DEB
:100F40001124CF01840F951F9F838E838FEF8D8F88
:100F50008E8F61110CC08885882389F0CE01089698
:100F60000E94520D882359F00E94150608C0CE0138
:100F700008960E94E604CE0141960E94E6040F9076
:100F80000FBE81E0DF91CF9108950F931F93F80179
:100F9000611103C01183008302C051834083838F9A
:100FA000648F61E0CF010E947F071F910F91089528
:100FB000DF92EF92FF920F931F93CF93DF93E82E70
:100FC000F62ED42E662321F0869FC001112402C084
:100FD00080E090E04F960E94B004EC01009749F049
:100FE0008C012D2DAC01415E5F4F6F2D8E2D0E9427
:100FF000C507CE01DF91CF911F910F91FF90EF9028
:10100000DF900895CF92DF92EF92FF920F931F939C
:10101000CF93DF9300D000D01F92CDB7DEB78C0105
:101020007B015D834C83C22ED12C0FB6F8940F92B6
:10103000F801928D838D981718F0F2E0CF1219C045
:101040004C2DB701C8010E94E806F8019189992347
:1010500049F0C80141960E94520D882331F00E9448
:10106000150603C081110E9415060F900FBE81E086
:101070004DC08C819D81892B21F40F900FBE80E0A3
:1010800045C0D11006C0CE0101960E949A0DDD2404
:10109000D3940F900FBE0E94520B0FB6F8940F928C
:1010A000F801858D8F3F09F4158EF801868D8F3FED
:1010B00009F4168E0F900FBEBE016C5F7F4FCE01FC
:1010C00001960E94A50D81111BC0C8010E94DA067D
:1010D000882381F06C817D81C80108960E94400DB3
:1010E000C8010E944B070E94120C81119ECF0E94E2
:1010F00015069BCFC8010E944B070E94120C95CF8A
:10110000C8010E944B070E94120C80E00F900F90C4
:101110000F900F900F90DF91CF911F910F91FF9043
:10112000EF90DF90CF900895CF92DF92EF92FF92F1
:101130000F931F93CF93DF9300D000D01F92CDB7B2
:10114000DEB78C016B015D834C83E12C0FB6F89404
:101150000F92F801F28CFF20A9F0B601C8010E949D
:101160003107FA94F801F28E8085882339F0C8019E
:1011700008960E94520D81110E9415060F900FBE15
:1011800081E053C08C819D81892B21F40F900FBE8B
:1011900080E04BC0E11006C0CE0101960E949A0D7E
:1011A000EE24E3940F900FBE0E94520B0FB6F894FA
:1011B0000F92F801858D8F3F09F4158EF801868D09
:1011C0008F3F09F4168E0F900FBEBE016C5F7F4FEC
:1011D000CE0101960E94A50D81111BC0C8010E947D
:1011E000CD06882381F06C817D81C80141960E94E3
:1011F000400DC8010E944B070E94120C8111A6CF1E
:101200000E941506A3CFC8010E944B070E94120C32
:101210009DCFC8010E944B070E94120CC8010E947A
:10122000CD06882309F492CF80E00F900F900F90A5
:101230000F900F90DF91CF911F910F91FF90EF9042
:10124000DF90CF900895E091F806F091F906808143
:10125000811107C08FEF9FEF9093D0068093CF0648
:101260000895E091F806F091F9060580F681E02DE9
:101270000680F781E02D828193819093D006809340
:10128000CF060895CF93DF93EC018F89988D0E944C
:10129000E504CE010E94E504DF91CF9108956F929D
:1012A0007F928F929F92AF92BF92CF92DF92EF92F6
:1012B0000F931F93CF93DF93CDB7DEB74C01F501AA
:1012C0008789908D215031093C01620E731E611592
:1012D000710589F416C0822F90E0FB01E80FF91F19
:1012E0003081D501A80FB91F59963C93808188237E
:1012F00029F02F5F01C020E0283068F3F50110A22B
:1013000002C0F501118EF3E0FE1520F40F2EF3E07C
:10131000EF2EF02DF501E68AC50102960E94F40435
:10132000C5010C960E94F404F501B186A08684E004
:1013300090E08E19910995878487B38AA28A11A2B9
:1013400012A213A214A215A2A801B401C3010E9403
:101350007A05F50191838083C114D10419F0F60157
:10136000B182A082DF91CF911F910F91EF90DF901A
:10137000CF90BF90AF909F908F907F906F90089587
:10138000CF93C0E010C08C2F90E09C01220F331F40
:10139000220F331F220F331F820F931F845F984F3A
:1013A0000E94E604CF5FC43070F383E097E00E94B0
:1013B000E6048AEF96E00E94E6048DEE96E00E9435
:1013C000E60484EE96E00E94E6048AED96E00E9430
:1013D000E60483E097E09093F9068093F8068AEF9D
:1013E00096E09093F7068093F606CF910895CF93F9
:1013F000DF93EC010FB6F8940F928091D9068F5FBE
:101400008093D9068091300790913107892B59F448
:10141000D0933107C09330078091D906813099F479
:101420000E94C00910C08091D50681110CC0E091C6
:101430003007F091310796898E89891720F0D09373
:101440003107C09330078091D1068F5F8093D1061A
:101450008E899091D606981710F48093D60690E066
:101460009C01220F331F220F331F220F331F820FC5
:10147000931FBE016E5F7F4F845F984F0E94F804F8
:101480000F900FBE8091D506882351F0E091300770
:10149000F091310796898E89981710F40E941506ED
:1014A000DF91CF910895CF93DF931CC00FB6F894CE
:1014B0000F92E091E906F091EA06C681D781CE014C
:1014C00002960E944A058091D90681508093D906E0
:1014D0008091E30681508093E3060F900FBECE010A
:1014E0000E9442098091E3068111E0CFDF91CF9104
:1014F00008950E94530AFDCFFF920F931F93CF933D
:10150000DF93EC01F62E0091D7061091D80680915A
:1015100030079091310702960E944A05CF3F8FEF26
:10152000D80769F4FF2059F06091300770913107B6
:101530006E5F7F4F8AED96E00E94F8042FC0C00FC7
:10154000D11FE0913007F0913107D383C283C017D8
:10155000D10768F460913007709131078091F606E9
:101560009091F7066E5F7F4F0E94190517C060913A
:101570003007709131078091F8069091F9066E5FFF
:101580007F4F0E9419058091CF069091D006C81711
:10159000D90720F4D093D006C093CF06DF91CF9126
:1015A0001F910F91FF9008952F923F924F925F925B
:1015B0006F927F928F929F92AF92BF92CF92DF9263
:1015C000EF92FF920F931F93CF93DF933C011B0188
:1015D0005A012901CA010E94B0046C01892B71F0E3
:1015E00086E290E00E94B004EC01892B19F0D88EBD
:1015F000CF8A06C0C6010E94E50402C0C0E0D0E068
:10160000209791F0950140E050E0812C912C5E01F3
:101610006701E02E8201B101C3010E944F09CE0192
:101620000E94F70981E001C08FEFDF91CF911F91F8
:101630000F91FF90EF90DF90CF90BF90AF909F9071
:101640008F907F906F905F904F903F902F90089574
:10165000EF92FF920F930F2EFDECEF2EF6E0FF2E90
:10166000F02D00E020E030E045E550E06DE970E06D
:1016700089E79AE00E94D40A813081F4F8948FEFD0
:101680009FEF9093D0068093CF0681E08093D5069C
:101690001092D8061092D7060E94E6050F91FF908F
:1016A000EF9008958091CC068F5F8093CC060895CB
:1016B000DF92EF92FF920F931F93CF93DF9380916E
:1016C000CC06811197C0E090D706F090D8068FEF36
:1016D000E81AF80AF092D806E092D706E114F1046D
:1016E000B9F48091F8069091F9062091F6063091B0
:1016F000F7063093F9062093F8069093F706809347
:10170000F6068091D2068F5F8093D2060E9423094D
:101710008091CF069091D006E816F90628F4D12CD6
:1017200053C0DD24D39401C0D12CE091F806F09190
:10173000F9068081811107C08FEF9FEF9093D0064B
:101740008093CF0641C0E091F806F091F90605803C
:10175000F681E02DC681D7818A819B81E816F90642
:1017600028F49093D0068093CF062EC08E010E5F92
:101770001F4FC8010E944A058C899D89892B21F041
:10178000CE010C960E944A058E899091D606981734
:1017900010F48093D60690E09C01220F331F220F95
:1017A000331F220F331F820F931FB801845F984F9E
:1017B0000E94F8049E89E0913007F09131078689F4
:1017C000981708F0AECFB1CFE0913007F091310714
:1017D000868990E0FC01EE0FFF1FEE0FFF1FEE0F5A
:1017E000FF1F8E0F9F1FFC01E45FF84F8081823046
:1017F00040F409C08091D4068F5F8093D406D12C29
:1018000002C0DD24D3948091D306882311F0DD2417
:10181000D3948D2DDF91CF911F910F91FF90EF9079
:10182000DF9008950F931F93CF93DF930FB6F89433
:101830000F928091CC0681508093CC068091CC068B
:10184000811158C08091D906811133C056C0E091F2
:10185000F206F091F306C681D781CE010C960E9464
:101860004A058E010E5F1F4FC8010E944A058E89EE
:101870009091D606981710F48093D60690E09C01BC
:10188000220F331F220F331F220F331F820F931F8C
:10189000B801845F984F0E94F8049E89E091300758
:1018A000F09131078689981730F081E08093D30654
:1018B00002C0C0E0D0E08091ED068111C8CFCD2BF1
:1018C00011F00E942309C091D406CC2359F00E9444
:1018D000580B882319F081E08093D306C150B9F7E3
:1018E0001092D4068091D306882331F00E94150609
:1018F00081E003C080E001C080E00F900FBEDF9167
:10190000CF911F910F910895CF93DF93EC01892B15
:1019100049F00E94520B60E0CE010E947C0A0E94B6
:10192000120C01C080E0811102C00E941506DF91F7
:10193000CF9108958091CC06882321F081E0809397
:10194000D30608951092D3062091D60601C02150E7
:10195000822F90E0FC01EE0FFF1FEE0FFF1FEE0F36
:10196000FF1FE80FF91FE45FF84F3081332379F34D
:10197000AC01440F551F440F551F440F551F480F0E
:10198000591FDF010180F281E02D0280F381E02DFB
:101990001296FC93EE931197415F584FE417F507A9
:1019A00029F442815381FD0152834183FC01EE0FF2
:1019B000FF1FEE0FFF1FEE0FFF1F8E0F9F1FFC017B
:1019C000E45FF84F0180F281E02D8681978190934A
:1019D0003107809330072093D60608950F931F9305
:1019E000CF93DF93EC010FB6F8940F92892B21F47B
:1019F000C0913007D09131078E010E5F1F4FC80193
:101A00000E944A058C899D89892B21F0CE010C9674
:101A10000E944A05B8018AED96E00E94F8048DA163
:101A2000813009F41DA20F900FBE8091D506882346
:101A300039F00FB6F8940F920E9423090F900FBE51
:101A40008091300790913107C817D907A1F4809190
:101A5000D506882319F00E9415060DC09091DA066C
:101A60008091D906981305C0109231071092300763
:101A700002C00E949A0CDF91CF911F910F9108959F
:101A8000CF93DF93EB016091300770913107645F72
:101A90007F4F0E94190561E0CE010E947C0ADF9110
:101AA000CF9108950F931F93CF93DF93DC01159689
:101AB000ED91FC911697C681D7818E01045F1F4F6F
:101AC000C8010E944A058091CC0681111CC00A50B1
:101AD0001109C8010E944A058E899091D60698176F
:101AE00010F48093D60690E09C01220F331F220F42
:101AF000331F220F331F820F931FB801845F984F4B
:101B00000E94F80405C0B8018DEE96E00E94F8042A
:101B10009E89E0913007F09131078689891720F47A
:101B200081E08093D30601C080E0DF91CF911F91C7
:101B30000F9108952091D206FC0120832091D706B1
:101B40003091D8063283218308951F93CF93DF937A
:101B50000FB6F8940F92E091D706F091D806DC0109
:101B600011964D915C911297DF01A41BB50BEB010F
:101B7000288139812F3FDFEF3D07D1F0EC0118813B
:101B8000C091D2061C1719F0E417F50798F4A217B4
:101B9000B30748F4FB012A1B3B0B318320830E94CF
:101BA0009A0D80E008C0FB011182108281E003C021
:101BB00080E001C081E00F900FBEDF91CF911F91B7
:101BC000089581E08093D3060895A1E21A2EAA1BFE
:101BD000BB1BFD010DC0AA1FBB1FEE1FFF1FA217DD
:101BE000B307E407F50720F0A21BB30BE40BF50BDA
:101BF000661F771F881F991F1A9469F76095709563
:101C0000809590959B01AC01BD01CF010895A29FE5
:101C1000B001B39FC001A39F700D811D1124911DC0
:101C2000B29F700D811D1124911D08950E94070E11
:101C3000A59F900DB49F900DA49F800D911D112420
:101C40000895FB01DC0102C001900D92415050400B
:081C5000D8F70895F894FFCFC6
:101C580031323334353637383963303D01010201CA
:101C680003010401050106010C010D010E010F011C
:101C78001A001B001C001D00496E69745F546173D3
:101C88006B004B6579506164004C43440049444CF7
:021C9800450005
:00000001FF
