S00C0000434F54532E73726563DF
S11300000C942A000C9411030C9435030C9459039A
S11300100C9447000C9447000C94DC030C94AC0340
S11300200C9447000C947D030C9447000C94A20399
S11300300C9447000C9476040C9447000C949F0491
S11300400C9447000C9447000C9447000C94470010
S11300500C94470011241FBECFE5D8E0DEBFCDBF0E
S113006010E0A0E6B0E0E4E8FBE002C005900D92E9
S1130070AE38B107D9F720E0AEE8B0E001C01D9278
S1130080A03DB207E1F70E9449000C94C0050C940E
S113009000000E94B3040E9437050E943F01809132
S11300A060000E9447052FEF81EE94E021508040CC
S11300B09040E1F700C000006091600070E080E0D3
S11300C090E00E94B3018AE10E94BA0080939000FC
S11300D0811103C08AE0809360008BE10E94BA0022
S11300E080938F00811103C084E1809360008AE0D3
S11300F00E94BA0080938E00811103C08EE1809328
S1130100600080916000853011F08A3029F480917C
S113011061000E942002C3CF843129F480916200DF
S11301200E942002BCCF8E3109F0B9CF80916300C8
S11301300E942002B4CF0E944C050E945E058AE111
S11301400E94BA008093900008950E944C050E947A
S11301505E058BE10E94BA0080938F0008958AE0C7
S11301600E94BA0080938E00811103C08EE18093B7
S1130170600008951F93CF93DF9300D0CDB7DEB70F
S1130180182F81E089831A82BE016F5F7F4F812F10
S11301900E94BD0206C0BE016E5F7F4F812F0E9488
S11301A0BD028A818823B9F38FE39CE90197F1F7B3
S11301B000C0000089810F900F90DF91CF911F91B3
S11301C00895CF93C82F60E081E00E94360260E07A
S11301D082E00E943602C4FB662760F983E00E9435
S11301E03602C5FB662760F984E00E943602C6FB2E
S11301F0662760F985E00E9436026C2F661F662729
S1130200661F86E00E94360261E082E00E943602A8
S11302108FE99FE00197F1F700C0000060E082E001
S11302200E9436026C2F617083E00E943602C1FB8B
S1130230662760F984E00E943602C2FB662760F9F3
S113024085E00E943602C3FB662760F986E00E94BF
S1130250360261E082E00E9436028FE99FE0019756
S1130260F1F700C0000060E082E00E9436028FE1F6
S11302709EE40197F1F700C00000CF91089583E355
S11302800E94E10082E30E94E10088E20E94E10012
S11302908CE00E94E10081E00E94E10086E00E947F
S11302A0E10082E00E94E1000895CF93C82F61E04D
S11302B081E00E94360260E082E00E943602C4FBC4
S11302C0662760F983E00E943602C5FB662760F961
S11302D084E00E943602C6FB662760F985E00E942E
S11302E036026C2F661F6627661F86E00E94360260
S11302F061E082E00E9436028FE99FE00197F1F706
S113030000C0000060E082E00E9436026C2F617041
S113031083E00E943602C1FB662760F984E00E94F4
S11303203602C2FB662760F985E00E943602C3FBF1
S1130330662760F986E00E94360261E082E00E944E
S113034036028FE99FE00197F1F700C0000060E0FA
S113035082E00E9436028FE19EE40197F1F700C02B
S11303600000CF9108958F929F92AF92BF92CF9247
S1130370DF92EF92FF926B017C01672B682B692B54
S113038019F480E30E945501FF205CF48DE20E9481
S11303905501F094E094D094C094C11CD11CE11C8C
S11303A0F11C61E070E080E090E024C0DC01CB014E
S11303B0880F991FAA1FBB1F4C015D01880C991C53
S11303C0AA1CBB1C880C991CAA1CBB1C880E991E59
S11303D0AA1EBB1EC701B6012AE030E040E050E08F
S11303E00E948705680D791D8A1D9B1DC22ED32E80
S11303F0E42EF52EC114D104E104F104B9F612C0BF
S11304002AE030E040E050E00E946505C22ED32E81
S1130410E42EF52E80E3860F0E9455016C2D7D2D70
S11304208E2D9F2D613071058105910549F7FF904F
S1130430EF90DF90CF90BF90AF909F908F900895F2
S1130440CF93C82F61E086E10E94360260E087E125
S11304500E9436026C2F80E00E94FE028FE99FE02A
S11304600197F1F700C00000CF910895982F969559
S1130470969596958770662309F43FC0613009F01C
S11304807BC0913099F028F09230E9F0933041F13B
S113049008954BB321E030E0B90102C0660F771F25
S11304A08A95E2F7CB01842B8BBB089548B321E0F6
S11304B030E0B90102C0660F771F8A95E2F7CB01DD
S11304C0842B88BB089545B321E030E0B90102C014
S11304D0660F771F8A95E2F7CB01842B85BB0895BD
S11304E042B321E030E0B90102C0660F771F8A955C
S11304F0E2F7CB01842B82BB08959130A1F028F060
S11305009230F9F0933059F108954BB321E030E083
S1130510B90102C0660F771F8A95E2F7CB01809577
S113052084238BBB089548B321E030E0B90102C0B5
S1130530660F771F8A95E2F7CB018095842388BBE9
S1130540089545B321E030E0B90102C0660F771F7A
S11305508A95E2F7CB018095842385BB089542B345
S113056021E030E0B90102C0660F771F8A95E2F7F7
S1130570CB018095842382BB0895982F96959695F8
S113058096958770913099F028F09230E9F0933085
S113059041F1089529B330E0A90102C0559547956A
S11305A08A95E2F7CA018170FB018083089526B31E
S11305B030E0A90102C0559547958A95E2F7CA0132
S11305C08170FB018083089523B330E0A90102C048
S11305D0559547958A95E2F7CA018170FB0180839E
S11305E0089520B330E0A90102C0559547958A9536
S11305F0E2F7CA018170FB01808308958695869590
S11306008695813041F028F0823039F0833039F01A
S113061008956BBB089568BB089565BB089562BBDC
S113062008951F920F920FB60F9211242F933F93A8
S11306304F935F936F937F938F939F93AF93BF93E6
S1130640EF93FF930E949B00FF91EF91BF91AF91B5
S11306509F918F917F916F915F914F913F912F91D6
S11306600F900FBE0F901F9018951F920F920FB608
S11306700F9211242F933F934F935F936F937F9324
S11306808F939F93AF93BF93EF93FF930E94A50023
S1130690FF91EF91BF91AF919F918F917F916F9156
S11306A05F914F913F912F910F900FBE0F901F902C
S11306B018951F920F920FB60F9211242F933F9308
S11306C04F935F936F937F938F939F93AF93BF9356
S11306D0EF93FF930E94AF00FF91EF91BF91AF9111
S11306E09F918F917F916F915F914F913F912F9146
S11306F00F900FBE0F901F9018951F920F920FB678
S11307000F9211248F939F93AF93BF938091CA004C
S11307109091CB00A091CC00B091CD000196A11D89
S1130720B11D8093CA009093CB00A093CC00B093EA
S1130730CD00BF91AF919F918F910F900FBE0F90FD
S11307401F9018951F920F920FB60F9211240F90BD
S11307500FBE0F901F9018951F920F920FB60F9215
S113076011242F933F934F935F936F937F938F93B2
S11307709F93AF93BF93EF93FF938091A1008F5FFB
S11307808093A100813039F4E091AE00F091AF0084
S113079009951092A100FF91EF91BF91AF919F91A4
S11307A08F917F916F915F914F913F912F910F9016
S11307B00FBE0F901F9018951F920F920FB60F92B5
S11307C011242F933F934F935F936F937F938F9352
S11307D09F93AF93BF93EF93FF9380919500909174
S11307E09600A0919700B09198000196A11DB11DAB
S11307F08093950090939600A0939700B0939800EF
S113080081309105A105B105C1F486B597B5A0E085
S1130810B0E080939D0090939E00A0939F00B093BE
S1130820A0001092CA001092CB001092CC0010923B
S1130830CD008EB58F7B8EBD48C082309105A10559
S1130840B10501F5E6B5F7B52091CA003091CB00AA
S11308504091CC005091CD00AFEFBFEF0E94B505A1
S1130860DC01CB018E0F9F1FA11DB11D8093990048
S113087090939A00A0939B00B0939C008EB58064E3
S11308808EBD23C00397A105B105F9F4E6B5F7B50C
S11308902091CA003091CB004091CC005091CD0002
S11308A0AFEFBFEF0E94B505DC01CB018E0F9F1F98
S11308B0A11DB11D8093910090939200A093930089
S11308C0B093940089B78F7D89BFFF91EF91BF9159
S11308D0AF919F918F917F916F915F914F913F91D4
S11308E02F910F900FBE0F901F9018951F920F928B
S11308F00FB60F9211242F933F934F935F936F93EF
S11309007F938F939F93AF93BF93EF93FF93E09164
S1130910BA00F091BB00309709F00995FF91EF916F
S1130920BF91AF919F918F917F916F915F914F9103
S11309303F912F910F900FBE0F901F9018951F920B
S11309400F920FB60F9211248F9381E08093CF0002
S11309508091CE008F5F8093CE008F910F900FBE59
S11309600F901F90189590E07EC0E92FF0E0EE0FF5
S1130970FF1FEB59FF4F8081282F2695269526953A
S1130980877031813323B9F1313009F06BC02130E4
S113099089F028F02230C9F0233011F163C04AB342
S11309A021E030E002C0220F331F8A95E2F7242BA6
S11309B02ABB58C047B321E030E002C0220F331FE6
S11309C08A95E2F7242B27BB4DC044B321E030E0E5
S11309D002C0220F331F8A95E2F7242B24BB42C0A6
S11309E041B321E030E002C0220F331F8A95E2F7C1
S11309F0242B21BB37C0213091F028F02230D9F0CC
S1130A00233029F12FC04AB321E030E002C0220F85
S1130A10331F8A95E2F7209524232ABB23C047B3CA
S1130A2021E030E002C0220F331F8A95E2F72095BF
S1130A30242327BB17C044B321E030E002C0220FB7
S1130A40331F8A95E2F72095242324BB0BC041B3BE
S1130A5021E030E002C0220F331F8A95E2F720958F
S1130A60242321BB9F5F943108F47FCF08958DB177
S1130A7080648DB98DB18F778DB98DB180628DB958
S1130A808DB1877F8DB98DB18B7F8DB908958FB965
S1130A90779BFECF8FB1089580B5866880BD8AB1FB
S1130AA080648AB98AB180688AB98AB188608AB94F
S1130AB08AB180618AB987E689B908958AB1806468
S1130AC08AB981E08093CF000895A1E21A2EAA1B6F
S1130AD0BB1BFD010DC0AA1FBB1FEE1FFF1FA217EA
S1130AE0B307E407F50720F0A21BB30BE40BF50BE7
S1130AF0661F771F881F991F1A9469F76095709570
S1130B00809590959B01AC01BD01CF010895052E00
S1130B1097FB1EF400940E949E0557FD07D00E9487
S1130B20650507FC03D04EF40C949E055095409542
S1130B30309521953F4F4F4F5F4F08959095809585
S1130B40709561957F4F8F4F9F4F0895A29FB0017D
S1130B50B39FC001A39F700D811D1124911DB29FED
S1130B60700D811D1124911D08950E94A605A59F55
S1130B70900DB49F900DA49F800D911D1124089594
S1070B80F894FFCF13
S1130B8405E6BCEEFE1A001B000A00000101010286
S1130B94010301040105010601070108000D000E0B
S1110BA4010F0000000000000000000000002F
S9030000FC
