:100000000C942A000C94DF020C9447000C944700D7
:100010000C9447000C9447000C949D030C944803E7
:100020000C9447000C9478030C9447000C943E0306
:100030000C9447000C9415040C9447000C943E0457
:100040000C9408030C9447000C9447000C94470050
:100050000C94470011241FBECFE5D8E0DEBFCDBF12
:1000600010E0A0E6B0E0E4EFFCE002C005900D92E5
:10007000A438B107D9F720E0A4E8B0E001C01D9290
:10008000A73CB207E1F70E9449000C9478060C9453
:1000900000000E9452040E94D6040E94D4000E94D4
:1000A000EB0481E00E94D3020E94CC010E94CF01A8
:1000B0000E94DC01EC010097D9F30E94E604BE0126
:1000C00080E090E00E945B0180E890E00E9448019F
:1000D0002FEF80E792E0215080409040E1F700C090
:1000E00000000E94C8010E94CF01E2CFCF93C82F29
:1000F00060E081E00E94F00160E082E00E94F00197
:10010000C4FB662760F983E00E94F001C5FB662707
:1001100060F984E00E94F001C6FB662760F985E083
:100120000E94F0016C2F661F6627661F86E00E9402
:10013000F00161E082E00E94F0018FE99FE0019709
:10014000F1F700C0000060E082E00E94F0016C2F37
:10015000617083E00E94F001C1FB662760F984E0D2
:100160000E94F001C2FB662760F985E00E94F00161
:10017000C3FB662760F986E00E94F00161E082E03F
:100180000E94F0018FE99FE00197F1F700C00000A5
:1001900060E082E00E94F0018FE19EE40197F1F7B8
:1001A00000C00000CF91089583E30E94760082E3AF
:1001B0000E94760088E20E9476008CE00E94760021
:1001C00081E00E94760086E00E94760082E00E9434
:1001D00076000895CF93C82F61E081E00E94F0017E
:1001E00060E082E00E94F001C4FB662760F983E0D2
:1001F0000E94F001C5FB662760F984E00E94F001CF
:10020000C6FB662760F985E00E94F0016C2F661F2F
:100210006627661F86E00E94F00161E082E00E948E
:10022000F0018FE99FE00197F1F700C0000060E066
:1002300082E00E94F0016C2F617083E00E94F00167
:10024000C1FB662760F984E00E94F001C2FB6627CB
:1002500060F985E00E94F001C3FB662760F986E043
:100260000E94F00161E082E00E94F0018FE99FE0CE
:100270000197F1F700C0000060E082E00E94F00109
:100280008FE19EE40197F1F700C00000CF9108953F
:100290000F931F93CF938C01C0E003C00E94EA002C
:1002A000CF5FF801EC0FF11D80818111F7CFCF9165
:1002B0001F910F9108958F929F92AF92BF92CF920C
:1002C000DF92EF92FF926B017C01672B682B692B09
:1002D00019F480E30E94EA00FF205CF48DE20E94A2
:1002E000EA00F094E094D094C094C11CD11CE11CAD
:1002F000F11C61E070E080E090E024C0DC01CB0103
:10030000880F991FAA1FBB1F4C015D01880C991C07
:10031000AA1CBB1C880C991CAA1CBB1C880E991E0D
:10032000AA1EBB1EC701B6012AE030E040E050E043
:100330000E943F06680D791D8A1D9B1DC22ED32E7B
:10034000E42EF52EC114D104E104F104B9F612C073
:100350002AE030E040E050E00E941D06C22ED32E7D
:10036000E42EF52E80E3860F0E94EA006C2D7D2D91
:100370008E2D9F2D613071058105910549F7FF9004
:10038000EF90DF90CF90BF90AF909F908F900895A7
:1003900081E00E94760008950E947702089561E04E
:1003A00086E10E94F00185E38A95F1F7000060E0A4
:1003B00086E10E94F00108950E947E020E942205BB
:1003C00026E933E44BE05DE30E94B00520E030E035
:1003D00040E05FE30E94B0050E94F304CB01089562
:1003E000982F9695969596958770662309F43FC049
:1003F000613009F07BC0913099F028F09230E9F03B
:10040000933041F108954BB321E030E0B90102C0CF
:10041000660F771F8A95E2F7CB01842B8BBB08957B
:1004200048B321E030E0B90102C0660F771F8A951A
:10043000E2F7CB01842B88BB089545B321E030E07F
:10044000B90102C0660F771F8A95E2F7CB01842BB2
:1004500085BB089542B321E030E0B90102C0660FC8
:10046000771F8A95E2F7CB01842B82BB08959130E8
:10047000A1F028F09230F9F0933059F108954BB380
:1004800021E030E0B90102C0660F771F8A95E2F7DC
:10049000CB01809584238BBB089548B321E030E0E5
:1004A000B90102C0660F771F8A95E2F7CB018095EC
:1004B000842388BB089545B321E030E0B90102C030
:1004C000660F771F8A95E2F7CB018095842385BB61
:1004D000089542B321E030E0B90102C0660F771FF2
:1004E0008A95E2F7CB018095842382BB08958EB56F
:1004F00080648EBD89B7806289BF089580918C0029
:1005000090918D00A0918E00B0918F000297A1056F
:10051000B10509F03FC08091900090919100A091A9
:100520009200B09193004091940050919500609199
:10053000960070919700841B950BA60BB70B880F44
:10054000991FAA1FBB1F880F991FAA1FBB1F880FC7
:10055000991FAA1FBB1F880F991FAA1FBB1F880FB7
:10056000991FAA1FBB1F880F991FAA1FBB1F80932B
:10057000880090938900A0938A00B0938B0010921A
:100580008C0010928D0010928E0010928F0089B70F
:10059000806289BF609188007091890080918A0093
:1005A00090918B000895882331F0813039F48FB712
:1005B00080688FBF08958FB78F778FBF08951F9280
:1005C0000F920FB60F9211242F933F934F935F9387
:1005D0006F937F938F939F93AF93BF93EF93FF930B
:1005E000E0919900F0919A00309709F00995FF91F8
:1005F000EF91BF91AF919F918F917F916F915F919B
:100600004F913F912F910F900FBE0F901F90189513
:100610001F920F920FB60F9211242F933F934F9377
:100620005F936F937F938F939F93AF93BF93EF935A
:10063000FF9324B135B1A8E8B3E10E945E062FEF25
:1006400033E040E050E00E941D0620938400309388
:1006500085004093860050938700FF91EF91BF91F2
:10066000AF919F918F917F916F915F914F913F914A
:100670002F910F900FBE0F901F9018951F920F9201
:100680000FB60F9211240F900FBE0F901F90189568
:100690001F920F920FB60F9211242F933F934F93F7
:1006A0005F936F937F938F939F93AF93BF93EF93DA
:1006B000FF93809198008F5F80939800813039F488
:1006C000E091A500F091A600099510929800FF9185
:1006D000EF91BF91AF919F918F917F916F915F91BA
:1006E0004F913F912F910F900FBE0F901F90189533
:1006F0001F920F920FB60F9211248F939F93AF9377
:10070000BF938091C1009091C200A091C300B091AD
:10071000C4000196A11DB11D8093C1009093C20039
:10072000A093C300B093C400BF91AF919F918F91EC
:100730000F900FBE0F901F9018951F920F920FB63B
:100740000F9211242F933F934F935F936F937F9357
:100750008F939F93AF93BF93EF93FF9380918C0000
:1007600090918D00A0918E00B0918F000196A11DF7
:10077000B11D80938C0090938D00A0938E00B09358
:100780008F0081309105A105B105C1F486B597B5FB
:10079000A0E0B0E08093940090939500A093960021
:1007A000B09397001092C1001092C2001092C30043
:1007B0001092C4008EB58F7B8EBD26C00297A10516
:1007C000B10511F5E6B5F7B52091C1003091C20031
:1007D0004091C3005091C400AFEFBFEF0E946D067F
:1007E000DC01CB018E0F9F1FA11DB11D80939000D6
:1007F00090939100A0939200B09393008EB5806483
:100800008EBD89B78F7D89BFFF91EF91BF91AF9169
:100810009F918F917F916F915F914F913F912F9118
:100820000F900FBE0F901F9018951F920F920FB64A
:100830000F9211242F933F934F935F936F937F9366
:100840008F939F93AF93BF93EF93FF93E091B1008A
:10085000F091B200309709F00995FF91EF91BF91A7
:10086000AF919F918F917F916F915F914F913F9148
:100870002F910F900FBE0F901F9018951F920F92FF
:100880000FB60F9211248F9381E08093C600809160
:10089000C5008F5F8093C5008F910F900FBE0F90A2
:1008A0001F90189590E07EC0E92FF0E0EE0FFF1F3B
:1008B000E05AFF4F8081282F269526952695877030
:1008C00031813323B9F1313009F06BC0213089F027
:1008D00028F02230C9F0233011F163C04AB321E07F
:1008E00030E002C0220F331F8A95E2F7242B2ABB87
:1008F00058C047B321E030E002C0220F331F8A9571
:10090000E2F7242B27BB4DC044B321E030E002C006
:10091000220F331F8A95E2F7242B24BB42C041B338
:1009200021E030E002C0220F331F8A95E2F7242B2A
:1009300021BB37C0213091F028F02230D9F023308C
:1009400029F12FC04AB321E030E002C0220F331F4B
:100950008A95E2F7209524232ABB23C047B321E0E0
:1009600030E002C0220F331F8A95E2F7209524233E
:1009700027BB17C044B321E030E002C0220F331F71
:100980008A95E2F72095242324BB0BC041B321E0D4
:1009900030E002C0220F331F8A95E2F7209524230E
:1009A00021BB9F5F903108F47FCF08958DB18064A3
:1009B0008DB98DB18F778DB98DB180628DB98DB1C3
:1009C000877F8DB98DB18B7F8DB908958FB9779B56
:1009D000FECF8FB108958FB58FBD8EB58EBD8EB50C
:1009E00085608EBD08950E948F0588F09F5798F00E
:1009F000B92F9927B751B0F0E1F0660F771F881F24
:100A0000991F1AF0BA95C9F714C0B13091F00E943D
:100A1000A905B1E008950C94A905672F782F8827C0
:100A2000B85F39F0B93FCCF3869577956795B39564
:100A3000D9F73EF490958095709561957F4F8F4FD3
:100A40009F4F0895E89409C097FB3EF490958095D8
:100A5000709561957F4F8F4F9F4F9923A9F0F92F84
:100A600096E9BB279395F695879577956795B79502
:100A7000F111F8CFFAF4BB0F11F460FF1BC06F5FE8
:100A80007F4F8F4F9F4F16C0882311F096E911C0FA
:100A9000772321F09EE8872F762F05C0662371F01B
:100AA00096E8862F70E060E02AF09A95660F771F2F
:100AB000881FDAF7880F9695879597F9089597F923
:100AC0009F6780E870E060E008959FEF80EC0895F4
:100AD00000240A941616170618060906089500241D
:100AE0000A9412161306140605060895092E039497
:100AF000000C11F4882352F0BB0F40F4BF2B11F40B
:100B000060FF04C06F5F7F4F8F4F9F4F089557FD69
:100B10009058440F551F59F05F3F71F04795880F6B
:100B200097FB991F61F09F3F79F087950895121602
:100B300013061406551FF2CF4695F1DF08C01616AE
:100B400017061806991FF1CF86957105610508945F
:100B50000895E894BB2766277727CB0197F9089576
:100B60000E94C3050C9476050E94680538F00E9427
:100B70006F0520F0952311F00C945F050C9465052A
:100B800011240C94AA050E94870570F3959FC1F368
:100B9000950F50E0551F629FF001729FBB27F00D2B
:100BA000B11D639FAA27F00DB11DAA1F649F662780
:100BB000B00DA11D661F829F2227B00DA11D621FCF
:100BC000739FB00DA11D621F839FA00D611D221F89
:100BD000749F3327A00D611D231F849F600D211D6D
:100BE000822F762F6A2F11249F5750409AF0F1F0F0
:100BF00088234AF0EE0FFF1FBB1F661F771F881F59
:100C000091505040A9F79E3F510580F00C945F052C
:100C10000C94AA055F3FE4F3983ED4F3869577954C
:100C20006795B795F795E7959F5FC1F7FE2B880FFE
:100C3000911D9695879597F90895A1E21A2EAA1B02
:100C4000BB1BFD010DC0AA1FBB1FEE1FFF1FA2177C
:100C5000B307E407F50720F0A21BB30BE40BF50B79
:100C6000661F771F881F991F1A9469F76095709502
:100C7000809590959B01AC01BD01CF010895052E93
:100C800097FB1EF400940E94560657FD07D00E9461
:100C90001D0607FC03D04EF40C9456065095409563
:100CA000309521953F4F4F4F5F4F08959095809518
:100CB000709561957F4F8F4F9F4F0895A29FB00110
:100CC000B39FC001A39F700D811D1124911DB29F80
:100CD000700D811D1124911D08950E945E06A59F2F
:100CE000900DB49F900DA49F800D911D1124089527
:040CF000F894FFCFA6
:100CF4000101020103010401050106011E001601A0
:100D04000C000D000E010F000000000000000000A8
:040D140020436D000B
:00000001FF
